:020000040800F2
:10000000F0060020C9000008891C000895180008A7
:1000100000000000000000000000000000000000E0
:10002000000000000000000000000000531D000858
:100030000000000000000000511D0008551D0008D0
:10004000DB00000800000000DB000008DB00000807
:10005000DB000008FD01000807020008110200088B
:1000600000000000DB000008DB000008DB000008E7
:10007000DB000008DB000008DB00000800000000D7
:10008000DB0000080000000000000000F91D00086F
:1000900000000000591E0008B91E0008DB0000081F
:1000A00000000000DB00000800000000312500080F
:1000B0000448854600F090F800480047552A00089B
:1000C000C046C046F0060020044880470448004768
:1000D000FEE7FEE7FEE7FEE7FEE7FEE7F51D0008A8
:1000E000B100000830B50B46014600202022012453
:1000F00009E00D46D5409D4205D31D469540491B5C
:100100002546954040191546521E002DF1DC30BDA4
:10011000F0B51FB40646002082B005464024019188
:1001200000901BE0019922460F46304600F020F86F
:10013000049A059B801A994110D31046194622460D
:1001400000F039F8361A8F4101972246012000212C
:10015000009F00F030F838184D4100902046641E92
:100160000028DFDC019B00982946324607B0F0BD2D
:1001700010B5202A04DB0846203AD040002110BDEB
:100180000B46D340D0402024A21A91400843194680
:1001900010BDD2B201E00270401C491EFBD2704774
:1001A0000022F6E710B513460A4604461946FFF743
:1001B000F0FF204610BD10B5202A04DB0146203A8E
:1001C0009140002010BD914020239C1A0346E3403B
:1001D0001943904010BD0000064C0125064E05E075
:1001E000E36807CC2B430C3C98471034B442F7D358
:1001F000FFF762FF9C330008BC33000810B50120F4
:1002000000F046F910BD10B5082000F041F910BD0E
:1002100010B50120C00300F03BF90120000300F0FD
:1002200037F9102000F034F910BD0000F0B587B0A8
:1002300014216846FFF7B4FF4C4842690121890543
:100240000A43426142690A400592426949110A43E0
:10025000426142690A400592426949000A4342618B
:1002600040690022084005900920FF21C00600F0E7
:10027000F5F9FF2000240090012509200294694629
:1002800001950394C00600F00FF918201126384F8D
:1002900036040090694601960294384600F004F94D
:1002A0000095694638460196029500F0FDF8222037
:1002B00000900294694601950394384600F0F4F8E2
:1002C00000222221384600F0C9F9F813009069464F
:1002D00001960294C00300F0E7F8E80200900226BD
:1002E000092002946946049601950394C00600F023
:1002F000DBF82802009009200294694604960195D3
:100300000394C00600F0D0F8C020019600900326A8
:100310000294694638460396049400F0C5F87002CA
:100320000090122001A961C10420049009206946AF
:10033000C00600F0B9F8052000F0C2FB002211460B
:10034000052000F0C9FB062000F0BAFB0022114690
:10035000062000F0C1FB072000F0B2FB002211468E
:10036000072000F0B9FB07B0F0BD0000001002400C
:100370000004004830B5014620314B780022022BA2
:1003800004D0042383630A70012030BD03681C6815
:100390000E25AC431C6003681C68640864001C6084
:1003A0000123056C1C46C06BAC4044604B700A7066
:1003B000002030BD70B50024014620314A78022A61
:1003C00003D004218163012416E0026813680E251E
:1003D000AB431360026813685B085B001360012283
:1003E000056C1346AB40C56B6B604A7000220A7007
:1003F000416B002900D08847204670BD70B5044687
:1004000000F032F90546601C02D004480078241838
:1004100000F02AF9401BA042FAD370BDB0000020C2
:1004200070B50025184A0526184C102804D00CDC9D
:10043000012822D0082825D10221104600F006F913
:100440006069401C6061606911E001210903401A84
:100450000626002803D007210903884212D1022171
:10046000104600F0F3F8A069401CA061A0690128C3
:1004700008D1A0792072A67103E0012060710420E8
:10048000A071E57170BD000000040048000000206C
:1004900010B504494A69024202D04861FFF7C0FF23
:1004A00010BD000000040140F8B50023032401251D
:1004B000BAE02E469E40B44632407CD00E79B60754
:1004C000B60F012E01D0022E17D186682746B646F8
:1004D0005E00B74000967646BE43B646CF68009EA3
:1004E000B74076463743876046686746BE430F7914
:1004F000FF06FF0F9F40374347600E79F643B6076C
:100500000ED0C6682746B4465E00B646B74066467B
:10051000BE43B4468F687646B74066463743C760E9
:100520000E79B607B60F022E14D1DE08B6003618C3
:100530000096366A5F07B446FE0E0F27B646B740F0
:100540006646BE43B4460F697646B74066463743B3
:10055000009E376206682746B4465E00B646B7403E
:100560006646BE430F79B446BF07BF0F7646B74015
:100570006646374307604E68B603B60F53D02D4F1B
:10058000BE692E43BE61BE699F08F607F60F2A4E6C
:10059000BF00BE190096B6680F27B4469E07360FF7
:1005A000B646B7406646BE430927FF06B446B84282
:1005B00002D1002710E036E0204FB84201D10127D8
:1005C0000AE01F4FB84201D1022705E01D4FB84293
:1005D00001D1032700E005277646B740664637433A
:1005E000009EB760184E36684F689643FF0300D5EB
:1005F0001643154F3E607E684F689643BF0300D593
:100600001643114F7E60BE684F689643FF0200D5C7
:1006100016430D4FBE60FE684F689643BF0200D57B
:100620001643094AD6605B1C0A681646DE4000D0B5
:100630003FE7F8BD00100240000001400004004800
:1006400000080048000C00480004014042691346BD
:100650000B401B0491430B4383617047002A01D078
:10066000816170478162704701488068704700006F
:10067000B000002070B5040006D0254640356878EB
:100680000026002802D005E0012070BD2E70204613
:1006900000F09AF924206870206801684908490030
:1006A00001600F216068090688432168086121689C
:1006B0008A680120C00382438A60E1680129A16839
:1006C00008D021229202114322689160E168022938
:1006D00002D005E00143F7E701212268C902516019
:1006E00021684A680F4B1A434A602168CA688243EE
:1006F000CA60616920690843A16909020843216849
:10070000C860216AE06908432168086020680168C0
:100710000122114301606664202068702663AE7078
:10072000002070BD00800002FFB50546044640353C
:10073000687883B0202875D10C98002814D00D98C3
:10074000002811D0287801286CD001202870FFF7EC
:100750008BFF0746012200901923D103204601F0A8
:100760008BF9002874D103E00120400260646FE03F
:10077000222068704020A870002666640C98606291
:100780000D98608566630E980090019704A90EC9C4
:10079000204601F0FDF8002801D02E7058E0618D50
:1007A0003448FF2905D9FF22228501231B0600902A
:1007B00006E0618D21850090208D0123C2B25B0689
:1007C0002046049901F044F90097002204212046B4
:1007D0000E9B01F051F900283AD12068406A616A05
:1007E0000870606A401C6062208D401E81B22185C5
:1007F000608D401E6085608D00281FD000291DD1AE
:1008000000970022802120460E9B01F035F9002838
:100810001ED1608DFF2806D9FF22228501231B06E9
:10082000009607E024E0608D20850096208D01234E
:10083000C2B25B062046049901F00AF9608D0028D7
:10084000C2D13A4620460E9901F03DF9002802D067
:10085000012007B0F0BD20682021C16120684268F6
:10086000054B1A4042606970AE702E700020F0E7B0
:100870000220EEE70024008000E800FEFFB50546F8
:1008800004464035687883B0202872D10C9800283F
:1008900014D00D98002811D02878012869D00120A3
:1008A0002870FFF7E1FE0746012200901923D103CB
:1008B000204601F0E1F8002871D103E00120400258
:1008C00060646CE0212068704020A8700026666497
:1008D0000C9860620D98608566630E980090019791
:1008E00004A90EC9204601F083F8002801D02E701B
:1008F00055E0608DFF2805D9FF22228501231B06C4
:10090000009606E0608D20850096208D0123C2B2FE
:100910005B062046049901F09BF83A4620460E9962
:1009200001F0F7F800283AD1606A216800788862FF
:10093000606A401C6062608D401E6085208D401E94
:1009400080B22085618D00291FD000281DD100971D
:100950000022802120460E9B01F08EF800281ED137
:10096000608DFF2806D9FF22228501231B060096F1
:1009700007E024E0608D20850096208D0123C2B21F
:100980005B062046049901F063F8608D0028C4D10D
:100990003A4620460E9901F096F8002802D0012030
:1009A00007B0F0BD20682021C16120684268054B76
:1009B0001A4042606970AE702E700020F0E702208D
:1009C000EEE7000000E800FE7047000070B504008C
:1009D0000FD021681548086021681548086003CCCD
:1009E00041602068083C21688860FFF73DFE0546AD
:1009F0000CE0012070BDFFF737FE401B272805D90A
:100A00002068C068400701D0032070BD2068C0681E
:100A10004007F0D120680269E1688A4201D0016193
:100A200001E004490160002070BD0000CCCC000052
:100A300055550000AAAA0000006802490160002084
:100A400070470000AAAA000002488168027889184D
:100A500081607047B000002010B506480168102280
:100A600011430160002000F007F800F027F8002093
:100A700010BD00000020024070B504460D4D7D20E1
:100A80002978C000FFF72EFB01460B480068FFF7EE
:100A900029FB00F031FB002809D1042C07D20022E9
:100AA0002146401E00F018F800206C6070BD012047
:100AB00070BD0000B0000020BC00002070470000A6
:100AC000002805DBC106C90E0120884001490860E5
:100AD0007047000000E100E010B501F08DFD10BD91
:100AE000F8B505460068354CC00352D5E0690026CC
:100AF000C00007D4E16920040143E161E1690140DC
:100B0000012600912E480168C90510D4016882159C
:100B100011430160FFF7A8FD074604E0FFF7A4FDBD
:100B2000C01B642824D826480068C005F6D5206A72
:100B300003273F02384020D06968394081421CD0E9
:100B4000206A226AB843012109040A432262226A08
:100B50008A4322622062C0070FD0FFF785FD009014
:100B600008E0FFF781FD0099411A1648814201D93A
:100B70000320F8BD206A8007F3D5206A6968B8436E
:100B800008432062002E04D0E16901200007814360
:100B9000E1612878C00705D0206BA9688008800033
:100BA000084320632878800605D5206B10218843F0
:100BB000E968084320630020F8BD000000100240EF
:100BC0000070004088130000F8B50F46060059D0A9
:100BD0003A4D2868C007C00FB84209D228684008BB
:100BE0004000384328602868C007C00FB84249D188
:100BF0003068334C81070CD5400704D56068072165
:100C00000902084360606068F0218843B1680843C6
:100C100060603078C00726D0706801280ED0216847
:100C200002280ED0890700292CDA6168890889001A
:100C300001436160FFF718FD00900DE02168890312
:100C4000F1E78901EFE7FFF70FFD0099411A1D4811
:100C5000814201D90320F8BD60680C210840716809
:100C600089008842EFD12868C007C00FB8420BD96D
:100C7000286840084000384328602868C007C00F33
:100C8000B84201D00120F8BD3078400706D5606831
:100C9000072109028843F1680843606000F028F8E2
:100CA0006168094A0906090F515CC8400749086094
:100CB0000020FFF7E1FE0020F8BD00000020024008
:100CC000001002408813000084330008BC0000209C
:100CD0000448054900684968044A4905490F515CC0
:100CE000C8407047BC000020001002409433000848
:100CF00010B514A30FCB88B06C460FC415A30FCB4F
:100D00000FC4184A51680C200B4603401648042BA8
:100D100016D0082B14D18B021B0F6C46E45CD26AF0
:100D200004AB1207120F9A5CC90305D500231946BC
:100D3000FFF7EEF9214601E020460C4901F044FCA2
:100D400008B010BD02030405060708090A0B0C0DC4
:100D50000E0F10100102030405060708090A0B0C08
:100D60000D0E0F100010024000127A0000093D0025
:100D7000FEB5040070D02078DC4DC0074AD068680A
:100D80000007800F012807D068680007800F02283D
:100D900009D16868C00306D5286880033AD5606821
:100DA0000028E7D036E06168012914D001208004D2
:100DB000002901D0052914D02A68012109048A4399
:100DC0002A602968814329606068002816D0FFF7EF
:100DD0004BFC06460EE02868012109040843286000
:100DE000F2E7296801432960F5E7FFF73DFC801B26
:100DF00064286ED828688003F7D50BE0FFF734FC31
:100E0000064604E0FFF730FC801B6428F1D8286810
:100E10008003F7D420780126800700283CDA686830
:100E20000007800F07D068680007800F022809D1EB
:100E30006868C00306D42868800716D5E0680128D2
:100E40000AD112E0E0680028286816D030432860F4
:100E5000FFF70AFC074605E043E1FFF705FCC01B6E
:100E60000228C6D828688007F7D52868F821884363
:100E70002169C900084328600EE04008400028604E
:100E8000FFF7F2FB074604E0FFF7EEFBC01B02286A
:100E9000AFD828688007F7D42078000722D5E0690A
:100EA0000028686A0ED030436862FFF7DDFB074612
:100EB00004E0FFF7D9FBC01B02289AD8686A8007B4
:100EC000F7D50FE0400840006862FFF7CDFB07460A
:100ED00005E09DE0FFF7C8FBC01B022889D8686ABF
:100EE0008007F7D4207804274007002860DA002024
:100EF0000190E869C00008D4E969B8060143E961D6
:100F0000E969014001200091019079480168C90513
:100F100011D40168821511430160FFF7A5FB009011
:100F200005E0FFF7A1FB0099401A642870D87048CB
:100F30000068C005F5D5A06801280AD0002801D0B6
:100F4000052810D0286A400840002862286AB84363
:100F500001E0286A30432862A068002812D0FFF719
:100F600083FB00900AE0286A38432862F1E7FFF724
:100F70007BFB0099411A5F48814249D8286A800763
:100F8000F5D50DE0FFF770FB009006E0FFF76CFB76
:100F90000099411A574881423AD8286A8007F5D407
:100FA0000198002804D0E969012000078143E96124
:100FB0002078C00635D5606901280CD0401D686BCB
:100FC00023D038436863686B400840006863FFF7CC
:100FD0004BFB064622E0686B38436863686B30431E
:100FE0006863FFF741FB064604E0FFF73DFB801B0B
:100FF00002285BD8686B8007F7D5686BF8218843B7
:10100000A169C900084368630BE0B8436863F4E76B
:101010004CE0FFF729FB801B022847D8686B80074C
:10102000F7D4206A00285ED069680907890F022971
:1010300042D0012636060228286805D0B043286031
:10104000FFF712FB044633E0B0432860FFF70CFBC8
:10105000074604E0FFF708FBC01B022826D82868D3
:101060008001F7D4E86AE16A000900010843E862F8
:10107000616AA06A084369683D22120491430843EB
:101080006860286830432860FFF7EEFA044604E001
:10109000FFF7EAFA001B022808D828688001F7D574
:1010A00021E0FFF7E1FA001B022801D90320FEBD71
:1010B00028688001F5D416E00128F8D06868E96A4C
:1010C00001221204636A02409A420AD10907E26AC5
:1010D000090F914205D10F2189040840A16A884275
:1010E00001D00120FEBD0020FEBD00000010024026
:1010F0000070004088130000094910B5401E884266
:1011000001D9012010BD074C60610321081F01F0C7
:1011100073FA0020A06107202061002010BD0000AC
:10112000FFFFFF0000E000E07047704770B504006B
:1011300005D025462035687F002802D006E0012032
:1011400070BD00202877204600F014F80220687750
:10115000211D206800F0DEFE01204034A071A87738
:10116000E87720706070A070E0702071607168771F
:10117000002070BD70470000014620314A7F012ADF
:1011800001D00120704702224A770268D36801210A
:101190000B43D3600068084A904202D0074A90424D
:1011A00004D182685207520F062A02D002680A430D
:1011B0000260002070470000002C01400004004045
:1011C0000168CA6852085200CA6001680A6A084B7E
:1011D0001A4207D10A6A9B101A4203D10A685208C0
:1011E00052000A6001212030417700207047000042
:1011F00011110000704770B50446006801690025B0
:10120000C9438907002915DBC168C943890711D47F
:10121000E91E01610120207720688069800720464F
:1012200002D0FFF7E7FF04E000F096F8204600F058
:1012300094F8257720680169C943490717D4C16824
:10124000C943490713D40421C9430161022020770F
:10125000206880698005800F204602D0FFF7CAFF12
:1012600004E000F079F8204600F077F82577206850
:101270000169C943090716D4C168C943090712D4D3
:101280000821C9430161042020772068C0698007D4
:10129000204602D0FFF7AEFF04E000F05DF82046E4
:1012A00000F05BF8257720680169C943C90617D4A7
:1012B000C168C943C90613D41021C943016108207C
:1012C00020772068C0698005800F204602D0FFF794
:1012D00091FF04E000F040F8204600F03EF825774A
:1012E00020680169C943C90708D1C168C943C90752
:1012F00004D1891E0161204600F030F820680169A0
:10130000C943090609D4C168C943090605D4802127
:10131000C94301612046FFF707FF20680169C943FF
:10132000490609D4C168C943490605D44021C943C7
:101330000161204600F026F820680169C94389064A
:1013400009D4C168C943890605D42021C943016174
:101350002046FFF7EAFE70BD70477047064910B59A
:10136000884201D1054804E00549884203D1034879
:10137000203000F0F7FB10BDF80100203400002001
:10138000400200207047704770470000F8B50446DF
:10139000EFF31080012181F3108821680A68FF2390
:1013A00021339A430A6080F31088EFF31080012103
:1013B00081F3108821688A68520852008A6080F39D
:1013C0001088206E01280BD1EFF31080012181F3EA
:1013D000108821680A6810239A430A6080F31088F5
:1013E0002368986822464106002040320F250029D4
:1013F00029DAEFF31081012686F310889E684027D2
:10140000BE439E6081F31088216F00290AD01048E6
:101410004863206FFEF7CEFF002812D0206F416B8B
:1014200088470EE05083606521680D6221688A69F3
:1014300008231A438A612021E16720662046FFF7CE
:10144000A3FF0020F8BD508360651D62F3E7000034
:10145000D120000870470000F8B502680446D06942
:10146000116896689C4B05461D402023002D75D0C1
:10147000F7079A4DFF0FBC460D402F436DD0254610
:10148000C7078035002F06D0CF0504D50127176286
:101490002A683A432A60820708D5F20706D02768EF
:1014A00002223A622A6804273A432A60420708D592
:1014B000F20706D02668042232622A6802263243E6
:1014C0002A6002070AD50A461A406646324305D00A
:1014D0002668082232622E6816432E60020508D55F
:1014E0004A0106D501222668D20232622A681A43CE
:1014F0002A602A68002A39D0800606D5880604D5D5
:10150000616E002901D020468847286821688968D3
:10151000490602D4282108422DD0204600F0EBFDD8
:1015200021688868400622D5EFF31080012282F3FB
:1015300010888B68402293438B6080F31088206F63
:10154000002814D066494163206FFEF733FF00285E
:101550000CD0206F416B08E000E012E0850610D54A
:101560008D060ED5616E9DE020468847F8BD204669
:10157000FFF770FFF8BD2046FFF76CFF00202860E2
:10158000F8BD256E012D7DD1C5067BD5CD0679D55B
:1015900010261662226890682546400640350028CD
:1015A00045DA216F086840680004000CE8D02F8BF2
:1015B0008742E5D968838869202833D0EFF310800B
:1015C000012181F3108811683701B943116080F35C
:1015D0001088EFF31080012181F3108821688A6858
:1015E000520852008A6080F31088EFF310800121C6
:1015F00081F3108821688A684027BA438A6080F3A3
:101600001088E36700202066EFF31080012181F34A
:10161000108821680A68B2430A6080F31088206F3E
:10162000FEF7A8FE288B698B401A81B231E0288B27
:10163000698B401A81B2688B0028A1D000299FD005
:10164000EFF31080012585F310881568FF272137F7
:10165000BD43156080F31088EFF31080012282F300
:101660001088226895686D086D00956080F3108879
:10167000E367002020666066EFF31080012282F3AA
:10168000108800E009E022681368B343136080F318
:1016900010882046FFF777FEF8BD050606D50D0633
:1016A00004D5A16E002900D05EE7F8BD4006FCD548
:1016B0004806FAD52046EFF31081012484F3108800
:1016C00014684025AC43146081F3108883670021BF
:1016D000816600F0DEF8F8BD0F080000200100046C
:1016E000BD20000810B5040003D0A06F002802D070
:1016F00007E0012010BD002174200155204600F0B4
:1017000026F82420A0672068016849084900016084
:10171000204600F0C7FD0128ECD0606A002802D006
:10172000204600F033FC206841680122D202914338
:1017300041602068816808229143816020680168C7
:10174000012211430160204600F086FC10BD704765
:1017500070B5C36F202B2BD100290BD0002A09D0E4
:10176000012483682403A34206D10369002B03D11B
:10177000CB0701D0012070BD034660331C7D012CD6
:1017800016D001241C7500230366046863681B02DD
:101790000BD5EFF31083012585F31088256801260A
:1017A000B6063543256083F3108800F009FE70BD4E
:1017B000022070BD01490120087070470000002020
:1017C000FFB50446806F83B017460D4620285ED1D2
:1017D000002D0AD0002F08D0A168C001814207D196
:1017E0002069002804D1E80702D0012007B0F0BD2D
:1017F000204660300090007D012848D000980121EB
:1018000001750020802108512120A067FEF72CFFE0
:10181000264640360190378277820120A168000376
:10182000814202D12069002805D02F460025009969
:101830000020087511E00027F9E7002280212046EA
:1018400000F00CFE002815D1002F15D02168387843
:1018500008857F1C708A401E7082708A019B002858
:1018600006980090E9D100224021204600F0F6FDC4
:10187000002808D00320B9E728882168C005C00DDA
:101880000885AD1CE6E72020A0670020AEE7022017
:10189000ACE77047FEE7000008B50F48C2690121B8
:1018A00049050A43C261C0690122084000900C4802
:1018B0000A49016083218900416000218160016142
:1018C00041618161C161C2600162FEF7D3FE0028FF
:1018D00001D072B6FEE708BD00100240005400407F
:1018E0002801002001688A69D243920701D40022AE
:1018F0008A6200688169C943C90703D081690122EE
:101900001143816170470000F7B5044600680F4637
:101910008169C943C90636D44168890104D4416844
:10192000012292031143416000262546403520687C
:101930008069C043800612D5781CF8D0FEF794FE6B
:101940000299401AB84201D8002FF0D1616C2020D2
:10195000014361646870AE702E700120FEBD216885
:101960001020C86120682027C7612046FFF7BAFF12
:1019700020684168054A11404160606C04210843B9
:1019800060646F70E7E70020FEBD000000E800FE25
:10199000F8B50446164615481D46DAB20090079F72
:1019A0000023204600F054F83A462046069900F0FD
:1019B000B0F8002818D12846F5B2012809D02168CE
:1019C000300A88623A462046069900F0A2F80028BC
:1019D0000AD1206885620097002240212046069B9C
:1019E00000F04AF8002800D00120F8BD0020008057
:1019F000F8B50446164615481D46DAB2C3020090F3
:101A0000079F204600F024F83A462046069900F049
:101A100080F8002818D12846F5B2012809D021689D
:101A2000300A88623A462046069900F072F800288B
:101A30000AD1206885620097002280212046069BFB
:101A400000F01AF8002800D00120F8BD0020008026
:101A5000F0B50668059C7568064F600D38438543F0
:101A60008805800D11040843184320430543756021
:101A7000F0BD0000FF63FF03F8B51D4617460E4694
:101A8000044609E0681C07D0FEF7EEFD0699401AEF
:101A9000A8420BD8002D09D02068816930468843C0
:101AA0000FD00020B842EDD00020F8BD616C20209E
:101AB00001436164403460700020A07020700120F8
:101AC000F8BD0120EEE770B516460D4604460FE05E
:101AD000324629462046FFF717FF002801D0012093
:101AE00070BDFEF7C1FD801BA84208D8002D06D0AE
:101AF00020688069C0438006EAD4002070BD616C14
:101B0000202001436164403460700020A070207088
:101B1000E5E770B516460D46044611E03246294603
:101B20002046FFF7F1FE002801D0012070BD681C9F
:101B300006D0FEF799FD801BA84208D8002D06D0DC
:101B400020688069C0438007E8D4002070BD616CC4
:101B5000202001436164403460700020A070207038
:101B6000E3E70000F8B5044601F042FA207E0026C3
:101B700001274049404D00280DD0012875D1E86863
:101B8000401CE860097800294CD0B021FEF7AAFA81
:101B900000293CD046E0A868401CA86009780029CC
:101BA0000FD01A21FEF79EFA00290AD1204601F033
:101BB0009BFB1A21A868FEF795FA0146204600F023
:101BC000A1FF2E480078002806D01A21A868FEF749
:101BD00089FA002900D1AF70607E294F012813D007
:101BE000002842D128690D214843A96888423CD188
:101BF0002069FFF7E5FAA18800222068FEF72EFD94
:101C0000AE602E61AE712FE01A212869ECE7204604
:101C100001F08AFBB021E868FEF764FA014620462D
:101C200000F0CAFF15480078002806D0B021E86807
:101C3000FEF758FA002900D1EF70607E114F01289D
:101C400014D0002811D1686958214843E9688842B6
:101C50000BD12069FFF7B4FAA18800222068FEF7B3
:101C6000FDFCEE606E61EE713E70F8BDB0216869FA
:101C7000EBE7000001000020C0000020020000206F
:101C80000300002004000020FEE7000030B5184AE1
:101C9000002111605160022100E0491C435C202BAF
:101CA000FBD1012406E0303B15686343EB18136059
:101CB0000A235C43491E435C612B01D06D2BF2D19A
:101CC000491C435C212BFBD1012408E02D2B0BD0B8
:101CD000303B55686343EB1853600A235C43491E4D
:101CE000435C202BF2D130BD50684042506030BD83
:101CF0002400002030B5154A0021116051600221F6
:101D000000E0491C435C202BFBD1012306E0303C62
:101D100015685C432C1914600A246343491E445C13
:101D2000612C01D06D2CF2D1491C435C212BFBD1DD
:101D3000012406E0303B55686343EB1853600A23E7
:101D40005C43491E435C202BF4D130BD2C000020A5
:101D50007047704710B5FEF777FE10BD70B5244888
:101D600096B08169012529438161816929401491D7
:101D7000C26901040A43C261C0690840149030215D
:101D80006846FEF70DFA00240E94280413940F946D
:101D900009900C940D9410940095000111941294E4
:101DA000019502260A90089607950B946846FEF75F
:101DB000DFFF002801D072B6FEE707200C900E94DA
:101DC00001210D960F940CA8FEF7FEFE002801D00D
:101DD00072B6FEE7212010901295139410A8FEF71A
:101DE0007FFE002801D072B6FEE716B070BD00007D
:101DF000001002407047000010B50248FFF7FBF9E1
:101E000010BD0000F801002008B50F48C269811517
:101E10000A43C261C0690F4A084000900C480B4950
:101E200001602F214160002181600161C2608161F8
:101E3000FFF77CF91320FEF743FE00221146132022
:101E4000FEF74AFE08BD00000010024000200040DE
:101E5000F8010020EF55000010B50248FFF7CBF95C
:101E600010BD00004002002008B50F488269012122
:101E700049040A43826180690E4A084000900C4878
:101E80000A4901602F214160002181600161C26027
:101E90008161FFF74BF91520FEF712FE0022114673
:101EA0001520FEF719FE08BD001002400044014055
:101EB000400200200F27000010B50248FFF79BF9F1
:101EC00010BD00008802002008B50F48826901217A
:101ED00089040A43826180693122084000900C48DD
:101EE0000A4901602F214160002181600161C260C7
:101EF0008161FFF71BF91620FEF7E2FD0022114673
:101F00001620FEF7E9FD08BD001002400048014020
:101F10008802002070B50268174B184E984201D015
:101F2000B04203D17024A2434C682243144C154D97
:101F3000984208D0B04206D0134EB04203D0A0421F
:101F400001D0A84204D103263602B243CE68324300
:101F50008026B2434E69324302608A68C2620A68D0
:101F60008262984203D0A04201D0A84201D10969FF
:101F700001630121416170BD002C0140000400405B
:101F800000440140004801400020004010B5818C11
:101F9000C90707D001684A6801235B049A43836A32
:101FA0001A434A60818C890707D501684A68012372
:101FB0001B049A43C36A1A434A60818C490707D5B8
:101FC00001684A6801239B049A43036B1A434A60E1
:101FD000818C090707D501684A680123DB039A430E
:101FE000436B1A434A60818CC90607D50268916821
:101FF00001231B039943836B19439160818C8906EC
:1020000007D501688A6801235B039A43C36B1A43AF
:102010008A60818C490612D503685A680121090536
:10202000046C8A4322435A60026C8A4207D10268D8
:10203000516803235B059943436C19435160818CBC
:10204000090607D501684A680123DB04806C9A43BE
:1020500002434A6010BD0000F8B5044600268030F7
:102060000660FEF701FB054620680068124F000776
:1020700009D501212B46002249052046009700F092
:10208000EDF900280DD12068006840070BD501212B
:102090002B46002289052046009700F0DFF9002832
:1020A00001D00320F8BD2020A067E06726666034D9
:1020B00026750020F8BD0000FFFFFF0110B5406A43
:1020C0000022014640314A834A82FFF7C3F910BD1E
:1020D00010B5406A00215A22115203680F221A6279
:1020E000026893690824234393612022C267016632
:1020F000FFF74AF910BD10B5EFF31081012282F30A
:10210000108802681368FF242134A343136081F30D
:102110001088EFF31081012282F31088026893681F
:102120005B085B00936081F31088016E01290BD17D
:10213000EFF31081012282F31088026813681024E3
:10214000A343136081F310882021C1670021016639
:10215000416610BD70B5014640318B8BC46F02687B
:10216000222C04D0906908210843906170BD928CA4
:10217000446D1A402280426D921C42654A8B521E69
:102180004A834A8B002AF1D1EFF31082012383F3B3
:10219000108803681C68FF252135AC431C6082F35E
:1021A0001088EFF31082012383F3108803689C6882
:1021B000640864009C6082F310882022C2670022B9
:1021C0004266036E012B02D0FFF7F4FA70BD02667F
:1021D000EFF31082012383F310880468256810232D
:1021E0009D43256082F310880268D469E443E406C5
:1021F00000D41362098BFFF7C6F870BD70B50146B5
:1022000040318B8BC46F0268222C04D09069082166
:102210000843906170BD928C1A40436D1A70426DF4
:10222000521C42654A8B521E4A834A8B002AF1D1C6
:10223000EFF31082012383F3108803681C68FF25E5
:102240002135AC431C6082F31088EFF31082012328
:1022500083F3108803689C68640864009C6082F3C0
:1022600010882022C26700224266036E012B02D032
:10227000FFF7A0FA70BD0266EFF31082012383F32B
:1022800010880468256810239D43256082F3108818
:102290000268D469E443E40600D41362098BFFF7B3
:1022A00072F870BD70B5044680682169E269084320
:1022B000616900251143084321680A683C4B1A40B4
:1022C00002430A6021684868032212039043E268CF
:1022D00010434860A169206A084321688A680B237B
:1022E0001B029A4302438A603248006B8007800FCA
:1022F00016D0012818D0022818D0032812D0102197
:102300000120E369C0032C4A2C4E83422BD10029C3
:102310000ED002290FD004290FD008293FD110E098
:102320000021EDE70221EBE70421E9E70821E7E7D7
:10233000FEF7CEFC03E0104603E0FEF7D9FC0028D0
:1023400031D0616840004A088018FDF7CBFE80B2AA
:1023500001461039B14222D81849491C01400007F2
:10236000400F08431DE0002906D0022907D00429A8
:1023700007D0082913D108E0FEF7AAFC03E01046B5
:1023800003E0FEF7B5FC00280DD061684A0810187C
:10239000FDF7A8FE80B201461039B14201D90125EE
:1023A00001E02168C86000206066A066284670BD14
:1023B000F369FFFF0010024000127A00EFFF0000F7
:1023C00070B54165014640310A834A830022426666
:1023D000012385681B03FF249D4204D10569002D5C
:1023E00031D11B4C2FE0002D29D08A8380210A5047
:1023F0002221C167EFF31081012484F3108804685F
:10240000A56801263543A56081F31088816899424B
:1024100002D10169002918D00E49416674210A547D
:10242000EFF31081012282F3108800680268FF2315
:1024300021331A43026081F31088002070BD0569C2
:10244000002D00D07F248C83D0E70349E5E700000E
:10245000FF010000FD21000855210008FFB581B0F3
:1024600005461746044660350A9E55E0701C53D059
:10247000FEF7FAF80499401AB04230D8002E2ED058
:1024800020680168490747D5C069C043000543D4A7
:1024900001202168C0020862EFF31080012181F35E
:1024A000108821680B68FF22A13293430B6080F3F0
:1024B0001088EFF31080012181F3108821688A6869
:1024C000520852008A6080F310882020A067E067DD
:1024D0008034206000202875032005B0F0BDEFF3A4
:1024E0001080012181F3108821680B68FF22A1323E
:1024F00093430B6080F31088EFF31080012181F388
:10250000108821688A68520852008A6080F3108817
:102510002020A067E067DDE72068C1690298884352
:1025200004D00020B842A1D00020D6E70120F9E76E
:1025300010B50248FEF790FF10BD000074010020A6
:1025400008B514488269012189030A4382618069C0
:102550000C220840009011480F4901604B214902AC
:10256000416000218160C16001618161C1610162DE
:1025700042614162FFF7B6F8002801D072B6FEE76B
:102580001B20FEF79DFA002211461B20FEF7A4FA3D
:1025900008BD000000100240003801407401002016
:1025A0000FB410B504A9074B02AA039800F056F81F
:1025B000044602A9002000F0F9F8204610BC08BC2F
:1025C00004B01847AD270008F8B5040C8BB22646B6
:1025D00082B25E430D0C1046370C58433604801906
:1025E0000021794116466E43370C36048019794133
:1025F00026466E438919F8BD8307FF22DB0E9A40F9
:102600008907090E9940002808DB830809489B00C8
:102610001B18186890430843186070470007000FA4
:102620000838830804489B001B18D8699043084366
:10263000D861704700E400E000ED00E002E008C867
:10264000121F08C1002AFAD170477047002001E02C
:1026500001C1121F002AFBD170470000FFB58DB0E9
:102660000446002506E025280AD0109A0F999047C5
:10267000641C6D1C20780028F5D1284611B0F0BDEF
:1026800000270121484A009700E00743641C237893
:102690000846203B98401042F7D120782E2817D1C9
:1026A000042007436078641C2A280CD10E98641C0F
:1026B00002C800910E900BE000990A225143303974
:1026C0004018641C00902078014630390929F3D95C
:1026D00020780028D1D0642808D0692806D0752831
:1026E0001ED0109A0F9990476D1C5BE00A200E993E
:1026F000019001C90E91002802DA40422D2102E02A
:10270000390504D52B216A461172012103E0F9072E
:1027100004D02021F7E70BAE0B910DE00021FAE782
:102720000A200E99019001C90E91F7E70199FDF772
:10273000D9FC3031761E31700028F7D103A8801BF8
:1027400020300190780701D5009801E00120009029
:102750000199884201DD401A00E000200027009026
:1027600006E002A8109AC05D0F9990476D1C7F1C6F
:102770000B988742F5DB04E0109A30200F999047C0
:102780006D1C0099481E00900029F5DC05E03078AA
:10279000109A761C0F9990476D1C0199481E019064
:1027A0000029F4DC641C65E7092801000A68531C51
:1027B0000B6010707047000070B50F4D2C46083C40
:1027C00028682168884215D0081A01D5002100E048
:1027D00001210948103000F067FC28682168411A7F
:1027E00000D549420448103000F040FA0249012067
:1027F0002439C87070BD00002400002070B50F4D52
:102800002C46083C68686168884215D0081A01D5D2
:10281000002100E001210948303000F045FC6868E3
:102820006168411A00D549420448303000F01EFA70
:10283000024901202439087170BD000024000020E5
:1028400070B53C4C6079002803D10320A0710020B2
:10285000E0716078002802D0E068002809D0A078F4
:10286000002857D0334D2C352868E62816DB032284
:102870001DE03048243041680C294BDB0068FF2103
:102880005F31884246DCE078002801D1FFF794FFF1
:10289000207900283ED1FFF7B1FF3BE0282801DA7C
:1028A00003220BE00146BE39282902D20222002170
:1028B00005E00146283928290AD2022201211D48B3
:1028C000343000F0FBF96868E6280EDB032215E0DF
:1028D000014691392D2901D20122E8E75038142808
:1028E00001D20122EAE70022E1E7282801DA0322E7
:1028F0000BE00146BE39282902D20222012105E05F
:1029000001462839282908D20222002109485430DA
:1029100000F0B8FA0120E07170BD014691392D290F
:1029200001D20122EAE75038142801D20122ECE753
:102930000022E3E7000000207CB504462248234D36
:10294000016800914068019021A168462A68FFF75C
:1029500027FE1FA101A86A68FFF722FE242020702D
:10296000012100206A4604E06354401C491C0328EE
:1029700002DA135C002BF7D120226254002001AB55
:10298000491C04E06554401C491C032802DA1D5C04
:10299000002DF7D10D4862541C38C278491C002A1A
:1029A0000AD10079002807D10A480078002803D10D
:1029B00009480078002801D0442000E053206054EA
:1029C0002120491C60547CBD7C3300081C00002081
:1029D00025640000C0000020C1000020044800F071
:1029E00081FB0348203000F07DFB72B6FEE700005B
:1029F0003400002070B50A4C0520A0710025E57157
:102A00002046343000F06EFB207A012800D00220EE
:102A1000A07165617D20C000FDF7F0FC70BD000075
:102A20000000002070B50A4C0620A0710025E57159
:102A30002046543000F056FB207A012800D00220B6
:102A4000A071A5617D20C000FDF7D8FC70BD00001D
:102A50000000002010B5FDF7FFFFFFF77FF9FDF73D
:102A6000E5FBFEF719FFFFF76BFDFFF7CDF9FFF769
:102A7000FBF9FFF729FA0848064901600321416084
:102A800006498160C160FDF7A1FF00F0DFFB002077
:102A900010BD000000300040D00200209F0F000059
:102AA0001FB50523042203A96C460EC40246012368
:102AB000A0210748FDF738FE6946C889497B40BA1E
:102AC000090408436946097B04B00906084310BDA0
:102AD000280100201FB56A46D073030A9373030CC4
:102AE0005373000E10730523042203A86C460DC413
:102AF0000A460123A0210248FDF7C0FE1FBD0000C9
:102B000028010020FEB5044628480E468179002998
:102B10003AD0006903210190FDF7E4FA0090019892
:102B20007D273F014500002911D00321401EFDF7FC
:102B3000D9FA002929D001980321401CFDF7D2FAC7
:102B4000002921D10098401CB04202D228E0009810
:102B5000FAE76169CA6A1648824202D9CA6AD21B78
:102B6000CA626169CA6A82420DD30BE06169CA6AAE
:102B70001048824202D2CA6AD219CA626169CA6A1C
:102B8000824200D8C86AC862FEBD0098B042E0D256
:102B900028460321FDF7A6FA401CB042E6D3FEBD4D
:102BA00028460321FDF79EFAF7E70000C000002049
:102BB000B70B0000EF550000FEB5044628480E464E
:102BC000C17900293AD0406903210190FDF78AFAC2
:102BD000009001987D273F014500002911D0032175
:102BE000401EFDF77FFA002929D001980321401CDF
:102BF000FDF778FA002921D10098401CB04202D29A
:102C000028E00098FAE76169CA6A1648824202D948
:102C1000CA6AD21BCA626169CA6A82420DD30BE0DA
:102C20006169CA6A1048824202D2CA6AD219CA626B
:102C30006169CA6A824200D8C86AC862FEBD00984B
:102C4000B042E0D228460321FDF74CFA401CB042C6
:102C5000E6D3FEBD28460321FDF744FAF7E700005E
:102C6000C00000209F0F00000F27000070B5114B1F
:102C700004461D7801221048002D02D0257E002D2B
:102C800006D01B78002B0CD0237E012B05D008E04A
:102C900001610A2905D3827103E041610A2900D349
:102CA000C271A18801222068FDF7D8FC2069FEF7D7
:102CB00063FA70BD01000020C0000020F7B5074690
:102CC0006A480E4600786A4C0025002823D10298F5
:102CD000002820D0384600F0E7F9FF216931384656
:102CE000FFF7C4FF002E02D0012E08D00FE02068AD
:102CF000FF216831401C884208DD256007E020681C
:102D0000012802D5FF20683000E0401E20605748AF
:102D100001210170067155480279964204D0796903
:102D2000CB6A54498B4213D90299002910D001294A
:102D300057D0022976D0032971D1817800296ED02D
:102D40007969CB6A4C4A934278D9CB6A4B4A52E0B4
:102D500046488078002862D07969CB6A454883422A
:102D60002AD2CE6A444B9E4204D2CE6A7D235B01B6
:102D7000F31803E0CB6A7D26B6019B19CB62796913
:102D8000CB6A834200D8C86AC862012A02D0002AEE
:102D900008D024E02068012802D5FF20683009E02F
:102DA000401E07E02068FF216831401C884201DD99
:102DB000256014E0206012E02C4C2278002A0ED00E
:102DC000C96A81420BD13869FEF7FAF9B988002245
:102DD0003868FDF743FCA560257064202071234806
:102DE0001CE0817800291AD07969CB6A214A22E057
:102DF000CB6A7D2252019A1830E0012E30D0002E8D
:102E00000CD104E0FF2168312EE0491E2CE021683E
:102E1000FF226832491C914226DD25608570FEBD87
:102E200000E00BE081780029F9D07969CB6A124A79
:102E300093428AD8CB6A9342DFD2D9E7CA6A104B51
:102E40009A42DAD9CA6A0D4BDB439A42CA6A02D265
:102E5000FF3AF53A02E07D23DB00D21ACA62CCE7E2
:102E600021680129D1D5CDE72160D7E7C000002036
:102E70001C000020EF5500000F27000090E8FFFF26
:102E80009F0F0000F7B5554F064678780D46544C15
:102E9000002817D10298002814D0304600F004F919
:102EA000A0213046FFF7E2FE012D02D0002D03D015
:102EB00005E06068401E01E06068401C6060012021
:102EC00078707D7138467A790027954204D071690F
:102ED000CB6A44498B4211D9029900290ED00129AD
:102EE00048D002295FD003295CD1C178002959D08C
:102EF0007169CB6A3C4A93425DD865E03748C07837
:102F000000284FD07169CB6A364883421DD2CD6A02
:102F1000354B9D42CD6A02D27D231B0101E07D230A
:102F20005B01EB18CB627169CB6A834200D8C86A37
:102F3000C862012A02D0002A03D019E06068401E4E
:102F400001E06068401C606012E0244C6278002A56
:102F50000ED0C96A81420BD13069FEF731F9B188D0
:102F600000223068FDF77AFBE760677064206071CB
:102F70001A4816E0C178002914D07169CB6A194A41
:102F80001FE0CB6A7D2212019A1825E0012D02D0A4
:102F9000002D06D102E06168491E01E06168491C0C
:102FA0006160C770FEBDC1780029FBD07169CB6A32
:102FB0000D4A934204D9CB6A7D2252019A1A0BE042
:102FC000CB6A9342E2D2DCE7CA6A084B9A42DDD967
:102FD000CA6A7D23DB00D21ACA62D7E7C00000208C
:102FE0001C0000200F2700006F170000B70B000027
:102FF00070B50446407E012802D000281BD03BE07B
:10300000E07E284DC0002A5CE1882068FDF726FBA1
:10301000E07E2189C000401942782068FDF71EFB40
:10302000E07E6189C000401982782068FDF716FBB8
:10303000E07EC0001AE0E07E1A4D8000103D2A5C60
:10304000E1882068FDF70AFBE07E218980004019B5
:1030500042782068FDF702FBE07E6189800040191C
:1030600082782068FDF7FAFAE07E80004019C27885
:10307000A1892068FDF7F2FAA07E002806D0012879
:103080000CD1E07E00280AD0401E06E0E07E217FC1
:10309000884201D1002000E0401CE07670BD207F16
:1030A000FBE70000E8000020002909D001290CD12D
:1030B0008176417E002906D0012906D1072103E04F
:1030C0000021817600E00321C1767047002905D0F8
:1030D000012902D14176072101777047002141760D
:1030E0000321F9E710B504460069FEF769F8A188E5
:1030F00000222068FDF7B2FAE18800222068FDF77F
:10310000ADFA218900222068FDF7A8FA6189002222
:103110002068FDF7A3FAA18900222068FDF79EFA36
:10312000227E00200A49002A09D0C8604861C8717F
:10313000084A1070487008486169C86210BD88600C
:1031400008618871054A107008700548F4E70000AE
:10315000C0000020040000200F2700000300002012
:10316000EF550000F8B507460078242811D178788B
:103170000126164C61280DD00025622815D06D2837
:103180000DD07A2805D120461C300C210560416005
:10319000E571F8BD66703846FEF778FD03E0A6706D
:1031A0003846FEF7A7FDE671F8BD08483430FFF752
:1031B00099FF06485430FFF795FFE571B87861280C
:1031C000F2D1E660E5702571F8BD00000000002036
:1031D00070B5184C60790025002802D10120A0713B
:1031E000E5711548FDF728FC002220211348FDF762
:1031F00035FA0A2212491348FEF7AAFA2078002865
:103200000BD0A57065702570FDF72EFA20610C4873
:10321000FFF7A8FF0B48FEF7B9F8E068002807D0D1
:10322000FDF722FA2169401A0749884200D9E56072
:1032300070BD000000000020D00200200004004803
:10324000E002002074010020B80B00000120FFF70D
:1032500027FC0F4C20600A20FDF7D0F80A20FFF76A
:103260001FFC6060204601211830FFF72FFF204629
:1032700001213830FFF72AFF1C3C25467435A07920
:10328000E179C0004019890040588047F7E7000005
:103290001C0000203EB5104C60790025002802D1AA
:1032A0000220A071E571012220210C48FDF7D6F91A
:1032B0000095019568460295FFF73EFB0848806F30
:1032C000202807D1074B0B2269460548FEF778FAFC
:1032D0000120E0713EBD0000000000200004004815
:1032E00074010020FFFF000010B5847E0C48FF220F
:1032F000683200230168012C02D0002C06D00BE0BC
:10330000012901D5026007E0491E04E0491C9142F1
:1033100001DD036000E001600248037010BD0000A1
:103320001C000020AC0000200749827E4868012A6A
:1033300002D0002A02D003E0401E00E0401C48609A
:1033400002490020087070471C000020AD000020DA
:1033500010B50948407900280CD0074C01211C34D5
:103360002068FFF7B7FB0620FDF748F80A216068E0
:10337000FFF7B0FB10BD0000000000202A2A2A0041
:103380002A2A2A00000000000000000001020304B5
:10339000060708090000000001020304BC3300080E
:1033A00000000020280100003C260008E43400084A
:1033B00028010020C80500004C260008000000007D
:1033C00000000100010000000000000000000000FB
:1033D00000000000000000000000000000000000ED
:1033E00000000000000000000000000000000000DD
:1033F000000000480008010002000400080000006E
:10340000F801002000200040000000000000000043
:103410000000004800012000100040008000000073
:1034200040020020004401400100000000000000B4
:103430000000000000000000D131000895320008B3
:10344000DD29000841280008DD290008D1310008E5
:103450005133000800000000F5290008F529000894
:10346000252A0008252A00080000000001000000AD
:10347000040000000000000000127A0000000000BC
:10348000000000000000000000000000000000003C
:103490000000000001000000000001000001000029
:1034A0000000000101000000000000000100010018
:1034B0000000000000000100000000000001010009
:1034C00000000000000100000000000000010001F9
:1034D00000000000000000010000000001000001E9
:0434E00000000000E8
:04000005080000B13E
:00000001FF
